S00D00005765656B322E7372656359
S113000045C0000058C0000068C000007AC000006D
S113001052C0000050C000004EC000004CC00000A0
S11300204AC0000048C0000046C0000044C00000B0
S113003042C0000040C000003EC000003CC00000C0
S11300403AC0000038C0000036C0000034C00000D0
S113005032C0000030C000002EC000002CC00000E0
S11300602AC0000028C0000026C0000024C00000F0
S113007022C0000020C000001EC000001CC0000000
S11300801AC0000018C0000016C0000011241FBED2
S1130090CFEFD0E1DEBFCDBF11E0A0E0B1E0ECEEE8
S11300A0F1E000E00BBF02C007900D92A630B1074B
S11300B0D9F73CD099C0A4CF181619066CF420E0E7
S11300C030E0EFECF7E03197F1F700C000002F5F6C
S11300D03F4F82179307A9F708951F920F920FB607
S11300E00F9211248F93DF9904C08BB3880F8BBBBD
S11300F002C081E08BBB8F910F900FBE0F901F90B9
S113010018951F920F920FB60F9211248F938BB3F1
S1130110823020F08BB386958BBB02C080E88BBB0A
S11301208F910F900FBE0F901F901895CF93DF9370
S113013000D000D01F92CDB7DEB78FEF81BB84BB58
S113014082BB16D085E0E0E0F1E0DE01119601907B
S11301500D928A95E1F7CE01019639D081E090E0C5
S11301600F900F900F900F900F90DF91CF91089503
S1130170CF93DF93D0E3D8BBC2E0C5BB8AE090E065
S11301809BDF15BAD8BBC5BB8AE090E095DF15BAF2
S1130190D8BBC5BB8AE090E08FDF15BA80E288BB8C
S11301A0C5BB81E090E088DF15BA81E088BBC5BBA0
S11301B015BA88BBC5BB15BA86E088BBC5BB15BAE2
S11301C08FE088BBC5BB15BADF91CF910895FC01C0
S11301D081E085BB808188BB92E095BB15BA8181A3
S10F01E088BB95BB15BA0895F894FFCFB6
S10901EC74657374000049
S9030000FC
