S00D00005765656B312E737265635A
S113000045C000004BC0000049C0000047C00000CC
S113001045C0000043C0000041C000003FC00000D4
S11300203DC000003BC0000039C0000037C00000E4
S113003035C0000033C0000031C000002FC00000F4
S11300402DC000002BC0000029C0000027C0000004
S113005025C0000023C0000021C000001FC0000014
S11300601DC000001BC0000019C0000017C0000024
S113007015C0000013C0000011C000000FC0000034
S11300800DC000000BC0000009C0000011241FBEF9
S1130090CFEFD0E1DEBFCDBFCCD0FFC0B1CF20E0E9
S11300A030E0281739074CF4E9EFF0E03197F1F725
S11300B000C000002F5F3F4FF4CF08958FEF87BB40
S11300C0BB98C09A82E58DB908958FB9779BFECF0E
S11300D0089598B321E030E001C0220F8A95EAF731
S11300E02095292328BB089598B321E030E001C06E
S11300F0220F8A95EAF7292B28BB08950F931F93A3
S1130100CF938C01C62F80E090E0E3DFC801DDDFF0
S11301108C2F90E0DADF80E090E0CF911F910F9177
S1130120E3CFEF92FF920F931F93CF93DF939C0142
S113013097FF20C088279927821B930B64E670E001
S113014085D08B014CE94603E001479FD00D112473
S1130150C21BD30BCE016AE070E078D07B0126EF9E
S11301602603C001279F900D1124C80FD91FEAE070
S1130170F0E029C068EE73E069D0FB0188E19CEFF0
S1130180689FE001699FD00D789FD00D11242C0F3A
S11301903D1FC90164E670E059D08B014CE9460368
S11301A0E001479FD00D11242C0F3D1FC9016AE0C7
S11301B070E04CD07B0146EF4603E001479FD00D31
S11301C01124C20FD31F6E2F84E090E097DF602FBD
S11301D083E090E093DF6E2D82E090E08FDF6C2F60
S11301E081E090E0DF91CF911F910F91FF90EF900C
S11301F085CF80E06EDF89E068DF8FE066DF80E036
S113020073DF80E066DF8AE060DF8AE05EDF80E043
S11302106BDF80E05EDF8BE058DF83E056DF80E059
S113022063DF80E056DF8CE050DF81E04EDF80E06A
S11302305BCF81E087BB42DFDCDF8AE59DEF71DFC6
S113024088EE93E02CDF81E090E0089597FB072E81
S113025016F4009406D077FD08D00BD007FC05D027
S11302603EF4909581959F4F0895709561957F4FC9
S11302700895AA1BBB1B51E107C0AA1FBB1FA617E9
S1130280B70710F0A61BB70B881F991F5A95A9F73B
S111029080959095BC01CD010895F894FFCFA0
S9030000FC
