S00D00005765656B322E7372656359
S113000045C0000058C0000066C0000077C0000072
S113001052C0000050C000004EC000004CC00000A0
S11300204AC0000048C0000046C0000044C00000B0
S113003042C0000040C000003EC000003CC00000C0
S11300403AC0000038C0000036C0000034C00000D0
S113005032C0000030C000002EC000002CC00000E0
S11300602AC0000028C0000026C0000024C00000F0
S113007022C0000020C000001EC000001CC0000000
S11300801AC0000018C0000016C0000011241FBED2
S1130090CFEFD0E1DEBFCDBF11E0A0E0B1E0E0EFF3
S11300A0F1E000E00BBF02C007900D92A830B10749
S11300B0D9F738D09BC0A4CF20E030E02817390707
S11300C04CF4EFECF7E03197F1F700C000002F5F3C
S11300D03F4FF4CF08951F920F920FB60F92112441
S11300E08F93DF9903C08BB3880F01C081E08BBB72
S11300F08F910F900FBE0F901F9018951F920F9223
S11301000FB60F9211248F938BB3823018F08BB3F8
S1130110869501C080E88BBB8F910F900FBE0F9026
S11301201F901895CF93DF93CDB7DEB728970FB6FE
S1130130F894DEBF0FBECDBF8FEF81BB84BB82BB03
S113014028D088E0E0E0F1E0DE01119601900D9204
S11301508A95E1F783E090E00ED0CE0101963BD082
S113016081E090E028960FB6F894DEBF0FBECDBFB5
S1130170DF91CF9108959FEF94BB15BA805585BB4D
S11301800895AB9A81E090E097DFAB9881E090E02E
S113019093CFCF938FEF84BB15BAC0E2C5BBF1DF19
S11301A0C5BBEFDF80E885BBECDF15BAEADF80EF83
S11301B085BBE7DF15BAE5DF80E685BBCF91E1CFEC
S11301C0CF93C82F85BBAA9ADCDFC295C07FC5BB7D
S11301D0AA9ACF91D6CFCF93DF93EC01899188234C
S11301E011F0EEDFFBCFDF91CF910895F894FFCFAC
S10B01F04D61726C65656E003F
S9030000FC
