S01700004763634170706C69636174696F6E322E737265635A
S113000045C000004BC0000059C000006AC0000099
S113001045C0000043C0000041C000003FC00000D4
S11300203DC000003BC0000039C0000037C00000E4
S113003035C0000033C0000031C000002FC00000F4
S11300402DC000002BC0000029C0000027C0000004
S113005025C0000023C0000021C000001FC0000014
S11300601DC000001BC0000019C0000017C0000024
S113007015C0000013C0000011C000000FC0000034
S11300800DC000000BC0000009C0000011241FBEF9
S1130090CFEFD0E1DEBFCDBF38D04DC0B1CF20E02F
S11300A030E0281739074CF4EFECF7E03197F1F71B
S11300B000C000002F5F3F4FF4CF08951F920F92AE
S11300C00FB60F9211248F93DF9903C08BB3880F5F
S11300D001C081E08BBB8F910F900FBE0F901F90DA
S11300E018951F920F920FB60F9211248F938BB312
S11300F0823018F08BB3869501C080E88BBB8F915A
S11301000F900FBE0F901F90189580EF81BB8FEF5B
S11301108ABB80916A008C6380936A0089B7866089
S113012089BF789481E08BBB82B3805882BB84EF13
S10D013091E0B5DFF9CFF894FFCF9A
S9030000FC
